:020000040000FA
:0400000028EF02F0F3
:020004000000FA
:0200080003D023
:02000E00D2041A
:100010000701F2B2FBEF01F0F6CF17F0F7CF18F0BF
:10002000040EF76E00500F0B006EE824017801B843
:10003000E82A300FF66ED8B0F72A0800F5CFD6FFC1
:1000400017C0F6FF18C0F7FF01B8896801B8F8EFCC
:1000500001F0E9CF17F0EACF18F001AE66D0D880F2
:1000600005360428070B046ED8B4059007EE08F097
:1000700001B007EE28F0E9268A96EFB08A868A92C8
:100080008A828A96EFB28A868A928A828A96EFB4A8
:100090008A868A928A828A96EFB68A868A928A822B
:1000A0008A96EFB88A868A928A828A96EFBA8A8678
:1000B0008A928A828A96EFBC8A868A928A828A96F5
:1000C000EFBE8A868A928A82F80EE9268A96EFB077
:1000D0008A868A928A828A96EFB28A868A928A82EF
:1000E0008A96EFB48A868A928A828A96EFB68A8640
:1000F0008A928A828A96EFB88A868A928A828A96B9
:10010000EFBA8A868A928A828A96EFBC8A868A9217
:100110008A828A96EFBE8A868A928A820550896E82
:10012000020FD8B4018416EF01F0D8800536D890BC
:10013000043202E1048E059007EE0FF001B007EEE5
:100140002FF08A960450ED14D8A48A868A928A8267
:100150008A960450ED14D8A48A868A928A828A9656
:100160000450ED14D8A48A868A928A828A96045012
:10017000ED14D8A48A868A928A828A960450ED1455
:10018000D8A48A868A928A828A960450ED14D8A4CA
:100190008A868A928A828A960450ED14D8A48A8626
:1001A0008A928A828A960450ED14D8A48A868A920A
:1001B0008A828A960450ED14D8A48A868A928A820A
:1001C0008A960450ED14D8A48A868A928A828A96E6
:1001D0000450ED14D8A48A868A928A828A960450A2
:1001E000ED14D8A48A868A928A828A960450ED14E5
:1001F000D8A48A868A928A828A960450ED14D8A45A
:100200008A868A928A828A960450ED14D8A48A86B5
:100210008A928A828A960450ED14D8A48A868A9299
:100220008A820550896E020FD8B4018405B02CEF84
:1002300001F0D89081B0D88007360750020FD8B4AB
:100240000380D89081BCD88008360850020FD8B4FB
:100250000382D8B401904ED005B23AEF01F0D890A5
:1002600081BCD88009360950020FD8B40384D8B4B1
:10027000019040D005B448EF01F0D89081BCD880FF
:100280000A360A50020FD8B40386D8B4019032D08F
:1002900005B67AEF01F0D89081BCD8800B360B50B0
:1002A000020FD8B40388D8B4019008B023D00BB0A3
:1002B00021D003A40FD00050F10FD8A0002AA96AC2
:1002C00000C0A8FF040EA66E550EA76EAA0EA76E5C
:1002D000A6820FD003A60ED00052D8A40006A96AA9
:1002E00000C0A8FF040EA66E550EA76EAA0EA76E3C
:1002F000A682036A01BA07D001B005D003B001801D
:10030000039089EF01F003A004D003900190FDEC6D
:1003100001F002B002D0AE5055D09EAA53D0AE50DC
:1003200002B208D002B434D05B0A5EE11C6A1D6AD6
:10033000028244D05D0A20E0AE50D00FF60FD8B054
:100340001B6A3CE2D8901C361D3638E21CC014F003
:100350001DC015F0D8901C361D3630E2D8901C36E2
:100360001D362CE214501C2615501D22AE500F0BCA
:100370001C26D8B01D2A22D002920294A96A1C50D1
:100380001E181CE11D501F1819E1196A028416D0AD
:100390001A2A17E006EE00F019C0E9FF192AAECFBD
:1003A000EEFFEF6AA92AA92809E0AECFA8FF040E44
:1003B000A66E550EA76EAA0EA76EA682F00E1B6E35
:1003C00013D01A061B5205E1A69402940292196AF0
:1003D0000BD01B0609E1018CA92AA86A550EA76E4D
:1003E000AA0EA76EA682A69417C0E9FF18C0EAFF5E
:1003F0000182F2941100F292110089688A8A070E34
:100400000CEC02F0F292F288F29A03000000F298EB
:100410008A9AF292F28A020E166E146A156A81A006
:10042000FBD7142EFCD7152EFAD7162EF8D71200AC
:10043000FDB5FCB6FBB7FAB8F8BAF6BCF4BEF1C12C
:10044000EDC5E8CAE2D0DBD7D3DFCAE8BFF3B3FF1C
:100450007C0ED36E130ED26E0F015B6B5C6B040EC1
:100460005D6F0001000EF16E400E856EFF0E896E0D
:10047000200E8A6E040E8B6E000E926E410E936EED
:10048000B90E946EC60ED56E4E0E066E050EBA6E81
:100490004A0EBB6E0C0E976E260E906E916A200E61
:1004A000AC6E900EAB6E180EB86E130EB06E880E5A
:1004B000AF6E8A9A00EE01F0EF18EE6AEAA2FCD75E
:1004C0000C6EEF18EE6AEAB2FCD70D6EEF18EE6A0A
:1004D000EAA2FCD70E6EEF18EE6AEAB2FCD70F6EF6
:1004E0000701F86A018A080E006E0E0EF66EF76AB2
:1004F0000900F5CF1EF00800F5CF1FF0A66AA96825
:10050000A5EC02F00F0B006E06EE00F0A5EC02F079
:10051000EE6E000F0AE0010F08E0FE0E046EA5EC7F
:1005200002F0EE6E042EFBD70AD006EE00F0740E39
:10053000F66E060EF76E0900F550EE6EFCE1A9ECC2
:1005400002F0E00EF26EAEEF03F0A92AA680A850EA
:1005500012007F0E896E390EC26E000EC16E3E0E05
:10056000C06E8A968A928A828A928A828A928A82C5
:100570008A928A828A928A828A928A828A928A82DB
:100580008A928A828A928A828A928A828A928A82CB
:100590008A928A828A928A828A928A828A928A82BB
:1005A0008A868A928A82E1EC02F0046E8A968A92A6
:1005B0008A82E1EC02F08968C290045CD8A0018EC6
:1005C0001200C282C2B2FED7C45012000F0B300913
:1005D000ACA2FED7AD6E12000C506D0DF3CF10F033
:1005E000F4CF11F00C504E0DF3501126D8B0F42A70
:1005F000F4CF12F00D506D0DF3501126F45012206F
:10060000136AD8B0132A126E0C50C60DF35012267E
:10061000F45013220E506D0DF3501226F450132295
:100620000D504E0DF3501226F45013220C50410D74
:10063000F35013260F506D0DF35013260D50C60DB9
:10064000F35013260E504E0DF35013260F6A0E6A08
:10065000600E0D6E730E0C6E10500C2611500D2294
:1006600012500E2213500F220C500D180E240F188A
:10067000BC1812003C683E57656C636F6D65207452
:100680006F3C483E204861636B616461792042653C
:100690006C67726164653C683E20636F6E6665726C
:1006A000656E6365202020203C493E483C693E2021
:1006B0003C493E413C693E203C493E433C693E202A
:1006C0003C493E4B3C693E203C493E413C693E2012
:1006D0003C493E443C693E203C493E413C693E2009
:1006E0003C493E593C493E203C763E57656C636F21
:1006F0006D6520746F3C563E204861636B61646198
:10070000792042656C67726164653C763E20636F58
:100710006E666572656E6365202020203C493E4808
:100720003C693E203C493E413C693E203C493E43B9
:100730003C693E203C493E4B3C693E203C493E41A1
:100740003C693E203C493E443C693E203C493E4198
:0C0750003C693E203C493E593C493E209B
:04075C000290018A7C
:10076000D80EF66E070EF76E07EE00F0E5EC03F01C
:1007700003B258EF07F003B47FEF0AF003B810EFAD
:1007800004F003B6F4EC03F0F3D711C710F712C767
:1007900011F713C712F714C713F715C714F716C7C5
:1007A00015F717C716F718C717F719C718F71AC795
:1007B00019F71BC71AF71CC71BF71DC71CF71EC765
:1007C0001DF71FC71EF738061200100E0900F5CFDF
:1007D000EEFFE82EFBD7120018141414180047A2DD
:1007E000A2E2A20808080808036A200EE8EC02F05A
:1007F0001EC03BF01FC03CF06EEC06F03E380F0B05
:10080000D8A4E6EC02F03E50E6EC02F03D38E6EC0F
:1008100002F03D50E6EC02F0200EE8EC02F012008F
:10082000A66A0290019A036A396A3A6A84EC06F071
:100830000701316A520E256EDAEC05F0AAEC05F0DC
:10084000306A0396EEEC04F0AAEC05F0302A3096FC
:1008500030520DE1312A31BA31060C0EF76EBC0E62
:100860003124F66ED8B0F72A0800F5CF25F0030E34
:100870002B6E000E2C6E000E2D6EECEC02F0070BB2
:10088000FF0FFBE3266EDAEC05F0EDEC05F07BECF8
:1008900005F047EC05F02DE389EC05F03C0E01A4D2
:1008A000FED70194E82EFBD707EE00F0100E216E64
:1008B000EE6A070E01A4FED70194E82EFBD7212E85
:1008C000F7D7160E01A4FED70194E82EFBD77FECD4
:1008D00006F003942084036A018AF3EC06F003B265
:1008E00006D003B404D003B602D003A8F3D7036A3A
:1008F00097D789EC05F001A4FED7019401B0FBD78E
:100900002BC02EF02DC02FF02096232A25500AB0A0
:1009100002D003B6080E235C07E32096236A2C2A34
:100920002C50F00FD8B02C0603A205D003922086DD
:100930002B662B0617D003A40BD0039420862652D7
:1009400004E12B50060A01E12B062D2A2D940AD032
:1009500003A808D0039820862B2A2B50F80FD8B074
:100960002B0600D0EDEC05F006E32EC02BF02FC0D7
:100970002DF0EDEC05F0DAEC05F07BEC05F047EC42
:1009800005F021E320B611D02C062EC02BF02FC08D
:100990002DF0EDEC05F0DAEC05F07BEC05F089ECE0
:1009A00005F0AAEC05F021EF04F02EC02BF02FC0CB
:1009B0002DF0AFEC05F0EDEC05F07BEC05F089ECEB
:1009C00005F07BEF04F00F5106E089EC05F0AAEC8E
:1009D00005F021EF04F089EC05F08DD7216A07EED0
:1009E00010F0100E226EED50EF28D8B419EC05F07F
:1009F000222EF9D72152D8B41200214E0CD00EEC81
:100A000005F0214E08D00EEC05F0214E04D00EEC7E
:100A100005F00EEC05F084EC06F012003A50D90F08
:100A200002E13950F10FD8B01200392AD8B43A2A6D
:100A30001200212A0EEC05F038EC05F038EC05F038
:100A400038EC05F038EC05F038EC05F038EC05F042
:100A5000E9CFE1FFEACFE2FFE9CFD9FFEACFDAFF42
:100A6000EE50E550E5CFDDFFD950000AFBE1120062
:100A7000EF6A070E01A4FED70194E82EFBD7EF68BA
:100A8000070E01A4FED70194E82EFBD712001051E7
:100A900000152FE1115101152CE11251021529E128
:100AA0001351031526E11451041523E115510515C1
:100AB00020E1165106151DE1175107151AE11851CD
:100AC000081517E11951091514E11A510A1511E118
:100AD0001B510B150EE11C510C150BE11D510D1591
:100AE00008E11E510E1505E11F510F1502E1D890C6
:100AF0001200D880120007EE00F02C50E926ED50CD
:100B000027C0EEFF28C0EEFF29C0EEFF2AC0EEFF8F
:100B100012001051001311510113125102131351FD
:100B200003131451041315510513165106131751CD
:100B3000071318510813195109131A510A131B519D
:100B40000B131C510C131D510D131E510E131F516D
:100B50000F13120017EE00F027EE10F004D017EE7E
:100B600010F027EE00F0E6CFDEFFE6CFDEFFE6CFA7
:100B7000DEFFE6CFDEFFE6CFDEFFE6CFDEFFE6CF2D
:100B8000DEFFE6CFDEFFE6CFDEFFE6CFDEFFE6CF1D
:100B9000DEFFE6CFDEFFE6CFDEFFE6CFDEFFE6CF0D
:100BA000DEFFE6CFDEFF120017EE20F005D017EED5
:100BB00010F002D017EE00F0E66AE66AE66AE66A2E
:100BC000E66AE66AE66AE66AE66AE66AE66AE66AA5
:100BD000E66AE66AE66AE66A12000C0EF76E2650CE
:100BE000100DF3504C0FF66ED8B0F72A2D50040DAF
:100BF000F350F626D8B0F72A0900F5CF27F0090000
:100C0000F5CF28F00900F5CF29F00900F5CF2AF03B
:100C10002B0418E02B660AD0D890273615E2283628
:100C200013E2293611E22A360FE20CD0226ED89058
:100C300027320AE2283208E2293206E22A3204E2A6
:100C4000222EF5D7D8901200D880120000F00000B4
:100C50004040404000F000004040404000E02000A4
:100C600020206000004070000060404000704000A4
:100C70000060202020E00000404060000060600034
:100C80000060600000606000006060000060C00004
:100C9000406020000060C0004060200000C0600094
:100CA0002060400000C060002060400000E0400084
:100CB00040C0400040E00000406040004C46413CE5
:100CC0004C4844403C3834302C2824211E1C1A182F
:100CD00016141211100F0E0D0C0C0C0C3D6A3E6A0E
:100CE000100E216E3B363C363D503D2007003D6ED8
:100CF0003E503E2007003E6E212EF4D71200DAEC63
:100D000005F007EE04F004D0D4EC05F007EE24F073
:100D100039C03BF03AC03CF06EEC06F03E50F00BB0
:100D20000CE1A00E3E123E500F0B07E10A0E3E12E0
:100D30003D50F00B02E1A00E3D123E380F0B40EC8F
:100D400007F0E83AEE120900F550E83AEE12090011
:100D5000F550E83AEE120900F550E83AEE120900B3
:100D6000F550E83AED12ED52ED52ED523E500F0BB8
:100D700040EC07F0EE120900F550EE120900F550B4
:100D8000EE120900F550EE120900F550EE12EE6A6F
:100D90003D380F0B40EC07F0E83AEE120900F55031
:100DA000E83AEE120900F550E83AEE120900F55063
:100DB000E83AEE120900F550E83AED12ED52ED5224
:100DC000ED523D500F0B40EC07F0EE120900F550CC
:100DD000EE120900F550EE120900F550EE1209006E
:100DE000F550EE1212003A52D8A4120039509C0F5E
:100DF000D8B0120006EE00F0980EF66E0E0EF76EEA
:100E000020A404D0A00EF66E0E0EF76E0900F55069
:100E1000EE6EFCE106EE00F0060E386ED7EC05F043
:100E2000EE50F8E0E00F0A0DF350720FF66EF4503A
:100E3000D8B0010F190FF76E17EE11F0090E090067
:100E4000F5CFE6FFE82EFBD703B2120003B4120081
:100E500003B6120003B81200120E01A4FED70194CB
:100E6000E82EFBD717EE00F027EE10F00A0ED89010
:100E7000DE36E636E82EFBD7382EE6D7CDD7120081
:100E8000060DB20EF66E240EF76EF350F626D8B0AD
:100E9000F72A0900F5501200506175736520200093
:100EA000504C4159205445545249532120200000B0
:100EB000A66A0290018A07EE40F0080E216E800EAD
:100EC000EE6EE842212EFCD7036A070131EC09F0EF
:100ED000040E216E212EFED731EC09F023EC09F02F
:100EE00099EC08F062EC09F0C3EC08F03F504124A3
:100EF00006E2432404E2240FD8A0E2EF07F015EC49
:100F000009F0D7EC05F0ECEC02F0070BFA0FF7E272
:100F1000070FE8A004D01387138914871489D89089
:100F2000E8321CE0E80612E0E80608E010871089C5
:100F3000118711891687168917871789108D108FC9
:100F4000118D118F168116831781178310811083DD
:100F500011811183168D168F178D178F800E106ECD
:100F6000126A01A4FED701941250110D070F7F0BD6
:100F7000126E27EE40F01250070BD9261240E842BD
:100F8000E8420F0B07EE00F0E926DF50E81EEF16EF
:100F900089EC05F0102EE5D7D7EC05F089EC05F0CB
:100FA000C80E116E01A4FED7019462EC09F0C3ECE7
:100FB00008F03F50412406E2432404E2240F02E2F9
:100FC000112EF0D74150CE0F0AE33F50FB0F07E23E
:100FD000ECEC02F00F0B03E10A0E3F2640703F508D
:100FE000CE0F0AE34150FB0F07E2ECEC02F00F0BCF
:100FF00003E10A0E41264270A7EC08F03290ECECB7
:1010000002F00F0B3F5CD8B032803292ECEC02F071
:101010000F0B415CD8B03282ECEC02F03F0BD40FE6
:10102000FBE22C0FE824480FE96E070EEA6E32A0AF
:1010300006D040A056EC08F040B062EC08F0EE524A
:1010400032A206D042A06FEC08F042B07CEC08F06F
:1010500072EF07F001050106010701080109010A05
:10106000020402050206020702080209020A020B34
:10107000030403050306030703080309030A030B1C
:10108000040404050406040704080409040A040B04
:10109000050405050506050705080509050A050BEC
:1010A00006050606060706080609060AEF50D8B424
:1010B0001200EE04336EEDCF34F088EC08F0D8A0C7
:1010C000EF061200EF50070AD8B41200EE28336E74
:1010D000EDCF34F088EC08F0D8A0EF2A1200EF50E2
:1010E0000F0AD8B41200ED28346EEECF33F088EC3E
:1010F00008F0D8A0EF2A1200EF50D8B41200ED0487
:10110000346EEECF33F088EC08F0D8A0EF06120072
:1011100017EE48F02C0E266EE650336205D0E750ED
:10112000346202D0D8801200E652262EF5D7D8902D
:101130001200540EF66E100EF76E07EE48F0580EC1
:10114000216E0900F5CFEEFF212EFBD7120017EE1E
:1011500030F0DCEC05F007EE48F02C0E216E27EEA7
:1011600040F017EE30F0EE50D926EE50300FE16E21
:10117000DF50E712212EF3D717EE30F027EE00F004
:10118000B3EC05F012000BEC09F00BEC09F00BECE2
:1011900009F00BEC09F00BEC09F03550E50A0AE117
:1011A000D8903F36D8903F36D8904136D8904136C7
:1011B000D890433640A409D03F6C4050030B030A3B
:1011C000D8A43F68010E406E05D04050030BD8A450
:1011D0003F68406A42A409D0416C4250030B030AA5
:1011E000D8A44168010E426E05D04250030BD8A42A
:1011F0004168426A44A409D0436C4450030B030A7B
:10120000D8A44368010E446E05D04450030BD8A403
:101210004368446A1200D89040323F32D89042323C
:101220004132D89044324332120007EE30F0100EB3
:10123000216EECEC02F0246EECEC02F02414EE6E65
:10124000212EF7D712008A988A9459EC0AF014ECF0
:101250000AF0939459EC0AF014EC0AF059EC0AF0F5
:1012600012008A988A9407EC0AF0A60E34EC0AF071
:10127000000E34EC0AF007EC0AF0A70E34EC0AF08A
:1012800051EC0AF02AEC0AF014EC0AF0E50AE50E3B
:10129000D8B4356E07EC0AF0D00E34EC0AF0750EB7
:1012A00034EC0AF007EC0AF0D10E34EC0AF051EC01
:1012B0000AF02AEC0AF014EC0AF0680A680ED8B4B6
:1012C000356E12008A988A943550680AD8B4B6EF01
:1012D00009F03550E50A01E0120007EC0AF0A60E0D
:1012E00034EC0AF02C0E34EC0AF00D0E34EC0AF05B
:1012F000080E34EC0AF007EC0AF0A60E34EC0AF003
:10130000310E34EC0AF00B0E34EC0AF007EC0AF064
:10131000A60E34EC0AF0320E34EC0AF007EC0AF0B8
:10132000A70E34EC0AF051EC0AF0416E20EC0AF002
:1013300051EC0AF0426E20EC0AF051EC0AF0FF0A80
:101340003F6E20EC0AF051EC0AF0FF0A406E20ECF0
:101350000AF051EC0AF0436E20EC0AF051EC0AF06E
:10136000446E2AEC0AF014EC0AF0120007EC0AF0C2
:10137000D00E34EC0AF06B0E34EC0AF0090E34ECAB
:101380000AF0070E34EC0AF014EC0AF007EC0AF04D
:10139000D00E34EC0AF01A0E34EC0AF0060E34ECDF
:1013A0000AF0080E34EC0AF0180E34EC0AF014ECD3
:1013B0000AF007EC0AF0D00E34EC0AF03B0E34ECE5
:1013C0000AF007EC0AF0D10E34EC0AF051EC0AF006
:1013D000406E20EC0AF051EC0AF03F6E20EC0AF06F
:1013E00051EC0AF0426E20EC0AF051EC0AF0416E2A
:1013F00020EC0AF051EC0AF0446E20EC0AF051ECBB
:101400000AF0436E2AEC0AF014EC0AF012009388FA
:1014100059EC0AF0938459EC0AF0939859EC0AF0CD
:10142000939459EC0AF01200939859EC0AF09384C3
:1014300059EC0AF0938859EC0AF01200E8360AE2F7
:10144000939859EC0AF0938459EC0AF0939459EC70
:101450000AF01200938859EC0AF0938459EC0AF0D0
:10146000939459EC0AF012001EEC0AF01EEC0AF0FC
:101470001EEC0AF01EEC0AF01EEC0AF01EEC0AF05C
:101480001EEC0AF01EEC0AF0938859EC0AF09384E3
:1014900059EC0AF0D89081B8D880939459EC0AF0AE
:1014A0001200080E226E44EC0AF0E836222EFBD71A
:1014B0001200216A2186212EFED71200105130130E
:1014C0001151311312513213135133131451341378
:1014D0001551351316513613175137131851381348
:1014E000195139131A513A131B513B131C513C1318
:1014F0001D513D131E513E131F513F131200A66A8A
:10150000018A036A02800E0E366E376ADAEC05F045
:10151000D7EC05F08CEF0AF0019C06EE00F020926B
:10152000060E386ED7EC05F020B2D7EF0AF0EE5079
:10153000F3E04DEC0CF00FE3E84E8FEF0AF0E84ECD
:10154000DCEF0AF0E84E27EF0BF0E84E88EF0BF0E7
:10155000E84EFCEF0BF0000FE7E0E00F0A0DF35050
:10156000720FF66EF450D8B0010F190FF76E17EE28
:1015700014F0090E0900F5CFE6FFE82EFBD71B5249
:101580003650030FA5EC0CF0E82EFCD717EE00F058
:1015900027EE10F0100ED890DE36E636E82EFBD798
:1015A00001BCBAD7382EEBD79AEC0CF0B8D7080E9E
:1015B000386E07D006EE00F02092080E386ED7EC99
:1015C00005F0EE50F7E04DEC0CF00FE3E84E8FEF36
:1015D0000AF0E84EDCEF0AF0E84E27EF0BF0E84E99
:1015E00088EF0BF0E84EFCEF0BF0000FEAE0E00FA5
:1015F0000E0DF350720FF66EF450D8B0010F1F0F9E
:10160000F76E17EE11F00E0E0900F5CFE6FFE82E8B
:10161000FBD7ABEC0CF0ABEC0CF03650030FA5ECA9
:101620000CF0E82EFCD717EE00F027EE10F0100EAD
:10163000D890DE36E636E82EFBD701BC8CEF0AF0F8
:10164000382EEBD79AEC0CF0B7D706EE00F02092CC
:101650000B0E386ED7EC05F020B2D7EF0AF0EE5043
:10166000F4E04DEC0CF00FE3E84E8FEF0AF0E84E9B
:10167000DCEF0AF0E84E27EF0BF0E84E88EF0BF0B6
:10168000E84EFCEF0BF0000FE7E0E00F0A0DF3501F
:10169000720FF66EF450D8B0010F190FF76E17EEF7
:1016A00011F0090E0900F5CFE6FFE82EFBD718511F
:1016B000D8B438061851D8B438061151D8B4C5EC8E
:1016C00003F01151D8B4C5EC03F03650A5EC0CF082
:1016D000E82EFCD717EE00F027EE01F00F0EDECF5C
:1016E000E6FFE82EFCD710C70FF717EE10F027EE35
:1016F00011F00F0EDECFE6FFE82EFCD701BC8CEF19
:101700000AF0382EE2D79AEC0CF0A1D706EE00F0E2
:1017100020920E0E386ED7EC05F020B2D7EF0AF00B
:10172000EE50F4E04DEC0CF00FE3E84E8FEF0AF0D2
:10173000E84EDCEF0AF0E84E27EF0BF0E84E88EFBA
:101740000BF0E84EFCEF0BF0000FE7E0E00F0E0DA2
:10175000F350720FF66EF450D8B0010F1F0FF76EF2
:1017600017EE11F00E0E0900F5CFE6FFE82EFBD7BD
:101770001C51D8B438061C51D8B438061C51D8B402
:1017800038061C51D8B438061151D8B4C5EC03F052
:101790001151D8B4C5EC03F01151D8B4C5EC03F025
:1017A0001151D8B4C5EC03F03650FE0FD8A0010E8D
:1017B000D8B4010EA5EC0CF0E82EFCD717EE00F023
:1017C00027EE01F00F0EDECFE6FFE82EFCD710C7A4
:1017D0000FF717EE10F027EE11F00F0EDECFE6FF39
:1017E000E82EFCD701BC8CEF0AF0382EDDD79AEC3E
:1017F0000CF08ED706EE00F02092060E386ED7EC75
:1018000005F020B2D7EF0AF0EE50F4E04DEC0CF00A
:101810000FE3E84E8FEF0AF0E84EDCEF0AF0E84EF7
:1018200027EF0BF0E84E88EF0BF0E84EFCEF0BF0E3
:10183000000FE7E0E00F060DF350320FF66EF450A4
:10184000D8B0010F1D0FF76E17EE1BF0050E090043
:10185000F5CFE6FFE82EFBD73650A5EC0CF0E82ECE
:10186000FCD727EE0EF017EE0FF00F0EDDCFE5FFE1
:10187000E82EFCD71FC700F727EE1EF017EE1FF06B
:10188000060EDDCFE5FFE82EFCD701BC8CEF0AF099
:10189000382EE2D79AEC0CF0AFD73C0A48E1EE5272
:1018A000EE503E0A3FE1ED52ED52EE50EE52D8803E
:1018B000680A2EE0680A480A2DE0480A760A2CE0F9
:1018C000760A560A2BE0560A6C0A2AE06C0A690A64
:1018D00017E0690A490A12E0490ACF0F17E3F70F28
:1018E00014E20A0F226E250E01A4FED70194E82E01
:1018F000FBD7222EF8D7000ED8901200208001D0FE
:1019000020902082000ED89012000A0F310F0AD0CA
:10191000010E1200020E1200030E1200040E12003D
:10192000050E1200ED52ED523C0ED89012003C0A0A
:10193000D890120020A212001E0E20B03C0E01A46E
:10194000FED70194E82EFBD7120020B2120001A4AA
:10195000FED7019412003650030FA5EC0CF0E82ED0
:10196000FCD717EE00F0100ED890E636E82EFCD724
:101970001200000000000000000000001010101015
:1019800010001000000028280000000000000000E7
:1019900028287C287C2828000000103C5038147827
:1019A0001000000060640810204C0C000000205063
:1019B00020504C48340000001010000000000000CF
:1019C0000000081020202010080000002010080847
:1019D0000810200000000028107C102800000000E3
:1019E0000010107C1010000000000000000000003B
:1019F000102000000000007C00000000000000003B
:101A0000000000002000000000040810204000003A
:101A100000003844444444443800000010301010A2
:101A20001010380000003844040810207C0000002A
:101A300038440418044438000000040C14247C04C6
:101A4000040000007C404078040478000000384422
:101A500040784444380000007C0408102020200016
:101A60000000384444384444380000003844443CC2
:101A700004043800000000200000002000000000E6
:101A8000002000000020400000000810204020102E
:101A90000800000000007C007C0000000000201016
:101AA000080408102000000038440408100010004A
:101AB000000038444C544C403C0000001028444482
:101AC0007C4444000000784444784444780000009A
:101AD0003844404040443800000070484444444882
:101AE000700000007C40407840407C0000007C405A
:101AF00040784040400000003844405C4444380096
:101B000000004444447C4444440000003810101059
:101B100010103800000004040404044438000000DD
:101B2000444850605048440000004040404040401D
:101B30007C000000446C544444444400000044448D
:101B40004464544C44000000384444444444380045
:101B50000000784444784040400000003844444449
:101B60005448340000007844447850484400000051
:101B7000384440380444380000007C101010101025
:101B800010000000444444444444380000004444ED
:101B9000444444281000000044444444546C44002D
:101BA0000000444428102844440000004444281005
:101BB0001010100000007C04081020407C00000081
:101BC0001810101010101800000000402010080419
:101BD000000000003010101010103000000010281D
:101BE0004400000000000000000000000000007C35
:101BF0000000201000000000000000000000380479
:101C00003C443C00000040404078444478000000E0
:101C100000003C4040403C0000000404043C4444BC
:101C20003C000000000038447C403C0000001824C8
:101C300020702020200000000000344C44443C046C
:101C40003800404078444444440000001000301004
:101C5000101038000000100030101010101060003C
:101C600040404448704844000000301010101010EC
:101C70003800000000006854545454000000000074
:101C80005864444444000000000038444444380090
:101C900000000000784444447840400000003C4488
:101CA00044443C04040000005C60404040000000EC
:101CB00000003C40380478000000202070202024E0
:101CC000180000000000444444443C0000000000B0
:101CD000444444281000000000004444546C440074
:101CE0000000000044281028440000000000444484
:101CF000443C0404380000007C0810207C000000F4
:101D00000810102010100800000010101010101003
:101D100010000000201010081010200000002054B7
:101D200008000000000000007C44444444447C005F
:101D300000000000000000000000FA00000000C0E9
:101D400000C0000028FE28FE28004854FE52220051
:101D5000462610C8C4000A0C52A25C00000000C055
:101D60000000008244380000003844820000105413
:101D70003854100010107C10100000000201000008
:101D800010101010100000000002000004081020C5
:101D900040007C8282827C000002FE42000062924F
:101DA0008A8642006C9292824400FE4828180800FD
:101DB0008C929292F2000C9292927C00C0A0908E33
:101DC00080006C9292926C007C9292926000000073
:101DD000004400000000004402000082442810007B
:101DE00028282828280010284482000060908A8033
:101DF00040007AAA92827C003E4888483E006C925D
:101E00009292FE00448282827C0038448282FE00EC
:101E100082929292FE0080909090FE001E9292829A
:101E20007C00FE101010FE000082FE820000FC020A
:101E30000202040082442810FE0002020202FE0098
:101E4000FE402040FE00FE040810FE007C828282DC
:101E50007C0060909090FE007A848A827C0062947C
:101E60009890FE004C92929264008080FE808000E8
:101E7000FC020202FC00F8040204F800FE0408045C
:101E8000FE00C6281028C600C0201E20C000C2A226
:101E9000928A86000082FE000000040810204000A4
:101EA0000000FE820000204080402000010101016E
:101EB00001000000408000001E2A2A2A04000C12A3
:101EC0001212FE00222222221C00FE1212120C000C
:101ED000182A2A2A1C004080907E10003E252525C5
:101EE00018001E202020FE000002BE22000000007C
:101EF000BE21010022140808FE000002FE8200003C
:101F00001E201E203E001E2020103E001C222222E9
:101F10001C00182424243F003F24242418002020DF
:101F200020103E00242A2A2A1200040222FC20004B
:101F30003E0202023C003804020438003E04080459
:101F40003E002214081422003E0909093000223202
:101F50002A26220000826C1000000000FF00000012
:101F600000106C820000402040804000FE8282828F
:101F7000FE00000000000000000000000000000063
:101F80001818181818181818000018180000666695
:101F9000440000000000000000000000666666FFCC
:101FA000FF6666FFFF6666660000183E7ED8D87C36
:101FB0003E1B1B7E7C180000C0C103060C1830605D
:101FC000C080030300003C7E666C38386CC7C7C70E
:101FD0007E390000181830000000000000000000EA
:101FE00000000C183060606060606030180C000009
:101FF00030180C0606060606060C1830000081C3D1
:10200000663C18FFFF183C66C381000000001818EA
:1020100018FFFF1818180000000000000000000062
:1020200000000000303060000000000000FFFF00F2
:1020300000000000000000000000000000000000A0
:102040006060000000000103060C183060C08000D2
:1020500000003C7EC3C3C3C3C3C3C3C37E3C0000F4
:10206000183878181818181818187E7E00003C7E4A
:10207000C303060C183060C0FFFF00003C7EC303A2
:10208000030E0E0303C37E3C0000060E1E3666C61A
:10209000C6FFFF0606060000FFFFC0C0C0FCFE032F
:1020A0000303FEFC00003E7EC0C0C0FCFEC3C3C3F1
:1020B000463C0000FFFF030303060C1830303030AD
:1020C00000003C7EC3C3C37E7EC3C3C37E3C00000E
:1020D0003C7EC3C3C37F3F0303037E7C0000001824
:1020E0001800000000000018180000000018180078
:1020F0000000000000001818100003060C183060E3
:102100006030180C06030000000000FFFF0000FF15
:10211000FF0000000000C06030180C06060C1830EC
:1021200060C000003C7EC303060C18181800181885
:1021300000003C7EC3C3DBDEDCC0C0C07E3E0000CE
:10214000183C66C3C3C3C3FFFFC3C3C30000FCFE88
:10215000C3C3C3FEFEC3C3C3FEFC00003C7FC3C0B9
:10216000C0C0C0C0C0C37E3C0000FCFEC3C3C3C32C
:10217000C3C3C3C3FEFC0000FFFFC0C0C0FEFEC05F
:10218000C0C0FFFF0000FFFFC0C0C0FEFEC0C0C057
:10219000C0C000003C7EC3C0C0C0CFCFC3C37F3E21
:1021A0000000C3C3C3C3C3FFFFC3C3C3C3C3000093
:1021B0003C3C18181818181818183C3C00003E3EF3
:1021C00006060606060606C67C380000C3C6CCD83E
:1021D000F0E0C0E0D8CCC6C30000C0C0C0C0C0C0E2
:1021E000C0C0C0C0FFFF000081C3E7FFDBC3C3C3A3
:1021F000C3C3C3C30000C3C3C3C3C3E3F3DBCFC7BD
:10220000C3C100003C7EC3C3C3C3C3C3C3C37E3CBE
:102210000000FCFEC3C3C3FEFCC0C0C0C0C00000C1
:102220003C7EC3C3C3C3C3C3DBCF7E3B0000FCFE05
:10223000C3C3C3FEFCF0D8CCC6C300003C7EC3C001
:10224000C07C3E0303C37E3C0000FFFF1818181833
:102250001818181818180000C3C3C3C3C3C3C3C3D6
:10226000C3C37E3C0000C3C3C3C3C3C366663C3C58
:1022700018180000C3C3C3C3C3C3C3DBFFE7C381D4
:102280000000C3C3C3663C18183C66C3C3C3000048
:10229000C3C3C3C3663C1818181818180000FFFF02
:1022A00003060C183060C0C0FFFF00003C3C30301B
:1022B0003030303030303C3C0000000080C06030B6
:1022C000180C0603010000003C3C0C0C0C0C0C0C20
:1022D0000C0C3C3C0000183C6600000000000000B4
:1022E000000000000000000000000000000000FFEF
:1022F000FF000000000000000000000000000000DF
:102300000000007C7E033F7FC3C37F3F0000C0C04E
:10231000C0C0FCFEC3C3C3C3FEFC00000000003FFE
:102320007FC0C0C0C0C07F3F0000030303033F7FE6
:10233000C3C3C3C37F3F00000000003C7EC3C3FF94
:10234000FFC07E3E00001C3E636060F8F860606085
:10235000606000000000003C7EC3C3C37F3F0303F6
:102360007E7CC0C0C0C0FCFEC3C3C3C3C3C30000E7
:10237000181800383818181818183C3C00000C0CB5
:10238000000C0C0C0C0C0C0C0CCC7830C0C0C0C376
:10239000C6CCD8F0D8CCC6C3000038181818181806
:1023A000181818183C3C0000000000B6FFDBDBDB0F
:1023B000DBDBDBDB0000000000DCFEE3C3C3C3C3E8
:1023C000C3C300000000003C7EC3C3C3C3C37E3C44
:1023D0000000000000FCFEC3C3C3FEFCC0C0C0C0C0
:1023E0000000003F7FC3C3C37F3F0303030300001C
:1023F00000DFFFE0C0C0C0C0C0C000000000003F60
:102400007FC07C3E0303FEFC0000606060F8F86063
:10241000606060633E1C0000000000C3C3C3C3C310
:10242000C3C37F3F0000000000C3C3C3C3C3C36670
:102430003C180000000000C3C3C3C3DBFFE7C38137
:102440000000000000C3663C18183C66C3C30000CF
:10245000000000C3C3C3C3C37F3F03037E7C0000EF
:1024600000FFFF060C183060FFFF00000E1E30302A
:102470003060603030301E0E000018181818181820
:10248000181818181818000070780C0C0C06060C98
:102490000C0C7870000070DB0E00000000000000E3
:1024A00000000000FFFFC3C3C3C3C3C3C3C3FFFF18
:1024B00000000E0A0A0A0E000C0404040E000E02AC
:1024C0000E080E000E020E020E000A0A0E02020094
:1024D0000E080E020E000E080E0A0E000E02040870
:1024E00008000E0A0E0A0E000E0A0E020E00000070
:0424F00000000000E8
:020000040030CA
:0100000023DC
:0100010008F6
:0100020059A4
:010003003CC0
:01000500D129
:010006008079
:010008000FE8
:01000900C036
:01000A000FE6
:01000B00E014
:01000C000FE4
:01000D0040B2
:00000001FF
